:100000000C940A010C9427010C9427010C942701ED
:100010000C9427010C9461010C9427010C94270186
:100020000C9427010C9427010C9427010C942701B0
:100030000C9427010C9427010C9427010C942701A0
:100040000C94EB0F0C9427010C9427010C942701BE
:100050000C941B0F0C94D90E0C9427010C942701BF
:100060000C9427010C9427010C9427010C94270170
:100070000C9427010C9427010C942701507265738E
:1000800073206120627574746F6E20746F207374B6
:1000900061727420616761696E0047414D45204F70
:1000A00056455200507265737320612062757474F6
:1000B0006F6E20746F207374617274206167616960
:1000C0006E00504C415945522025642057494E53EB
:1000D000212121002564202E202564207300256421
:1000E000202E202564207300506C617965722032C7
:1000F0002074696D652072656D61696E696E673A1D
:100100002025642073002564207300506C6179659C
:100110007220312074696D652072656D61696E6948
:100120006E673A2025642073002564202E20256404
:10013000207300256420730054696D652072656D1D
:1001400061696E696E673A2025642073002564003A
:1001500053656C656374656420426F617264202826
:100160007072657373204220746F206368616E67DC
:1001700065293A20426F61726420256400537461DE
:1001800072742067616D6520627920707265737387
:10019000696E6720312028666F72203120706C6193
:1001A00079657229206F7220320928666F722032B9
:1001B00020706C61796572290043535345323031A8
:1001C000302F37323031204132206279204D75682E
:1001D000616D6D61642053756C616D616E204B685B
:1001E000616E202D20733437353131393200536E32
:1001F000616B657320616E64204C61646465727329
:10020000001B5B4B001B5B324A001B5B25643B25DC
:100210006448000011241FBECFEFD8E0DEBFCDBF81
:1002200012E0A0E0B1E0EAE2F7E202C005900D9230
:10023000AE3EB107D9F724E0AEEEB2E001C01D92A8
:10024000A43BB207E1F70E94150E0C9493130C9493
:100250000000E8E6F0E08081826080838BB38260FA
:100260008BBBECE6F0E080818F6080831092EE0221
:1002700008958091EE02181614F58091EF026FB781
:10028000F89491E009C0F901E151FD4F4081F90175
:10029000E251FD4F40839F5F292F30E04091EE02F5
:1002A000042E000C550B241735076CF39091EE02C9
:1002B00091509093EE0266231CF4789408958FEF8A
:1002C00008951F920F920FB60F9211242F933F9310
:1002D0004F938F939F93EF93FF9343B14F7080E0C1
:1002E00026C09091EE0294300CF5242F30E0082EB9
:1002F00002C0359527950A94E2F720FF17C0209198
:10030000F30230E0082E02C0359527950A94E2F7F3
:1003100020FD0CC0E091EE0291E09E0F9093EE0262
:100320000E2E000CFF0BE151FD4F80838F5F843058
:10033000C0F24093F302FF91EF919F918F914F9103
:100340003F912F910F900FBE0F901F9018950F9314
:100350001F93CF93DF93CDB7DEB728970FB6F894EE
:10036000DEBF0FBECDBF0E94A50780E090E008C0B1
:10037000E1E0F0E0EC0FFD1FE80FF91F108201969D
:1003800088309105ACF308E010E008C0BE016F5F53
:100390007F4F802F0E9488070F5F1F4F003111058C
:1003A000ACF380E090E001C0019680319105E4F368
:1003B00028960FB6F894DEBF0FBECDBFDF91CF9168
:1003C0001F910F9108951F93CF93DF93CDB7DEB7A1
:1003D00028970FB6F894DEBF0FBECDBF0E94A507C9
:1003E00010E029C0E12FF0E0EF5DFE4F908190FF1B
:1003F00002C02FE001C020EF87E013C0992344F42E
:10040000E1E0F0E0EC0FFD1FE80FF11D208307C0D5
:10041000E1E0F0E0EC0FFD1FE80FF11D1082990FF5
:1004200081508111EBCF1982BE016F5F7F4F812F09
:100430000E9488071F5F1031A8F228960FB6F89423
:10044000DEBF0FBECDBFDF91CF911F910895CF9337
:10045000DF93D82FC62F842F0E947C028038F1F0C2
:1004600058F48032F9F018F48031E1F011C0803492
:1004700089F0803589F00CC0803C91F028F48039F7
:1004800069F0803A59F004C0803D51F0803E41F05F
:1004900040E009C04CE307C043E105C04FE003C0A2
:1004A00040EF01C045E367E06D1B8C2F0E94690798
:1004B000DF91CF91089580910103909102030895F7
:1004C0009093020380930103089580918303909198
:1004D00084030895883060F4603160F490E1899F6E
:1004E000F0011124ED5FFC4FE60FF11D80810895AE
:1004F00080E0089580E00895807F0895EF92FF9254
:100500000F931F93CF93DF938C010E94A70110924A
:10051000F9021092F8021092F7021092F60210926D
:10052000F5021092F40210928503E12CF12C56C0D2
:100530000130110519F5EFE0F0E0EC1BFD0BEE0FBB
:10054000FF1FEE0FFF1FEE0FFF1FEF5CFD4FEE0DC5
:10055000FF1D8081F701E295F295F07FFE27E07F95
:10056000FE27ED5FFC4FEC0FFD1F80830E947C0295
:10057000482F6C2F8E2D0E94270225C002301105B6
:1005800011F5EFE0F0E0EC1BFD0BEE0FFF1FEE0F9F
:10059000FF1FEE0FFF1FEF54FE4FEE0DFF1D80817A
:1005A000F701E295F295F07FFE27E07FFE27ED5FF1
:1005B000FC4FEC0FFD1F80830E947C02482F6C2FA4
:1005C0008E2D0E942702219602C0C0E0D0E0C031EB
:1005D000D1050CF4ADCF8FEFE81AF80A88E0E816E1
:1005E000F1049CF340E46091F8028091F9020E94CA
:1005F0002702DF91CF911F910F91FF90EF90089507
:100600008F7008959F92AF92BF92CF92DF92EF9238
:10061000FF920F931F93CF93DF931092FB021092E0
:10062000FA020091F802602F8091F9020E946A029A
:10063000C82F0E947C02803809F08EC08C2F0E9447
:100640000003A82E002E000C110B84C0CC2EF090BD
:10065000F902BF2C6FEF600F8C2F8F0D0E946A0282
:10066000D82E0E947C02E82E20EA82132DC0E09052
:10067000F8028F2D90E18902F0011124ED5FFC4F0B
:10068000EE0DF11DE7FCFA9580810E947C02482F57
:100690006E2D8F2D0E9427028091F9028C0F80937E
:1006A000F9026091F80261506093F80240910001F4
:1006B0000E9427028FE798E321E08150904020407C
:1006C000E1F700C0000036C08D2D0E94000321E03C
:1006D00090E9E91220E091E0A81290E0922351F114
:1006E000C091F8022F2D80E12802F0011124ED5F66
:1006F000FC4FEC0FF11DC7FDFA9580810E947C0232
:10070000482F6C2F8B2D0E9427028091F9028C0DAF
:100710008093F9026091F80261506093F802409171
:1007200000010E94270281E090E09093FB028093F9
:10073000FA0208C0219602C0CFEFDFEFC230D10528
:100740000CF484CF8091FA029091FB02892B21F462
:1007500001501109112384F7E090F8026E2D809169
:10076000F9020E946A02C82F0E947C02803C09F0B4
:1007700084C08C2F0E940003982E0E2C000CFF08C2
:1007800078C00091F8021091F90261E0600F8C2F9F
:10079000810F0E946A02D82E0E947C02803E51F591
:1007A00090E11902F0011124ED5FFC4FE00FF11D03
:1007B00007FDFA9580810E947C02482F602F812FCF
:1007C0000E9427028091F9028C0F8093F9026091B8
:1007D000F8026F5F6093F802409100010E942702C7
:1007E0008FE798E321E0815090402040E1F700C07E
:1007F00000002EC0803D61F58D2D0E9400039812EF
:1008000027C080E11802F0011124ED5FFC4FE00FDA
:10081000F11D07FDFA9580810E947C02482F602F10
:10082000812F0E9427028091F9028C0F8093F90298
:100830006091F8026F5F6093F802409100010E949E
:10084000270281E090E09093FB028093FA0208C0B7
:10085000219602C0CFEFDFEFC230D1050CF491CF6B
:100860008091FA029091FB02892B39F49FEFE91AEB
:10087000F90A20E1E216F1046CF3DF91CF911F91A8
:100880000F91FF90EF90DF90CF90BF90AF909F902F
:100890000895FF920F931F93CF93DF93F82E8091CB
:1008A000010390910203892B59F180918303909168
:1008B0008403892B99F08091F5028093F90280914D
:1008C000F4028093F80280E58093000140E4609197
:1008D000F6028091F7020E94270212C08091F7026F
:1008E0008093F9028091F6028093F80280E480936D
:1008F000000140E56091F4028091F5020E94270218
:10090000C091F902D091F80220E1C202F001112455
:10091000ED5FFC4FED0FF11DD7FDFA9580810E9430
:100920007C02482F6D2F8C2F0E94270200E010E0E0
:10093000AEC0C091F8028C2F8170C0FD52C0D09122
:10094000F902D73039F540E1D402F0011124ED5F0E
:10095000FC4FEC0FF11DC7FDFA9580810E947C02CF
:10096000482F6C2F8D2F0E9427026091F8026F5F35
:100970006093F802409100018091F9020E942702E1
:100980008FE798E321E0815090402040E1F700C0DC
:1009900000007BC040E1D402F0011124ED5FFC4F68
:1009A000EC0FF11DC7FDFA9580810E947C02482F53
:1009B0006C2F8D2F0E9427028091F9028F5F809308
:1009C000F902409100016091F8020E9427028FE72E
:1009D00098E321E0815090402040E1F700C0000002
:1009E00054C0882309F451C0D091F902D11127C015
:1009F00040E1D402F0011124ED5FFC4FEC0FF11D3A
:100A0000C7FDFA9580810E947C02482F6C2F8D2FA4
:100A10000E9427026091F8026F5F6093F802409194
:100A200000018091F9020E9427028FE798E321E0FC
:100A3000815090402040E1F700C0000026C040E116
:100A4000D402F0011124ED5FFC4FEC0FF11DC7FD46
:100A5000FA9580810E947C02482F6C2F8D2F0E9476
:100A600027028091F90281508093F90240910001A0
:100A70006091F8020E9427028FE798E321E08150FD
:100A800090402040E1F700C000000F5F1F4F8F2D06
:100A900090E0081719070CF44CCF0E9402038091D4
:100AA000010390910203892BB9F080918303909107
:100AB0008403892B49F08091F9028093F50280919B
:100AC000F8028093F40208C08091F9028093F70243
:100AD0008091F8028093F602409100016091F80243
:100AE0008091F9020E9427028091010390910203F4
:100AF000009751F0209183033091840341E0242733
:100B00003093840320938303892BE9F0809183033E
:100B100090918403892B61F08091F5028093F90212
:100B20008091F4028093F80280E5809300010BC06D
:100B30008091F7028093F9028091F6028093F80287
:100B400080E480930001DF91CF911F910F91FF907E
:100B500008950F931F93CF93DF93082F162F809143
:100B6000010390910203892BE9F080918303909116
:100B70008403892B61F08091F5028093F9028091C2
:100B8000F4028093F80280E5809300010BC080910D
:100B9000F7028093F9028091F6028093F80280E4D4
:100BA00080930001C091F902D091F80240E1C402A3
:100BB000F0011124ED5FFC4FED0FF11DD7FDFA950B
:100BC00080810E947C02482F6D2F8C2F0E9427026B
:100BD0008091F902800F8093F9026091F802610F11
:100BE0006093F802883014F01092F9028091F902B3
:100BF00088231CF487E08093F902603114F010928E
:100C0000F8028091F80288231CF48FE08093F802A8
:100C10000E9402038091010390910203892BB9F095
:100C20008091830390918403892B49F08091F9028C
:100C30008093F5028091F8028093F40208C08091BD
:100C4000F9028093F7028091F8028093F6024091B6
:100C500000016091F8028091F9020E9427028091C0
:100C6000010390910203009751F02091830330918A
:100C7000840341E024273093840320938303892B4A
:100C8000E9F08091830390918403892B61F0809136
:100C9000F5028093F9028091F4028093F80280E5D6
:100CA000809300010BC08091F7028093F90280913C
:100CB000F6028093F80280E480930001DF91CF91E7
:100CC0001F910F910895CF93DF93809183039091AB
:100CD0008403892B21F080E58093000103C080E428
:100CE0008093000180918503882371F0D091F802F0
:100CF000C091F9026D2F8C2F0E946A02482F6D2F30
:100D00008C2F0E94270208C0409100016091F802D8
:100D10008091F9020E9427029091850381E0891B4E
:100D200080938503DF91CF91089580910103909185
:100D300002030097C9F48091F9023091F80221E092
:100D4000811120E091E03F3009F090E0922321E012
:100D500030310CF420E0881F8827881F922B11F473
:100D60008823A1F181E00895892B91F18091F70208
:100D70003091F60221E0811120E091E03F3009F04E
:100D800090E0922321E030310CF420E0881F882786
:100D9000881F922BF9F481111DC08091F5023091CA
:100DA000F40221E0811120E091E03F3009F090E071
:100DB000922321E030310CF420E0881F8827881F1F
:100DC000922B11F4882341F081E0089580E008958A
:100DD00080E0089581E0089580E008950F931F93C7
:100DE000CF93DF9300E010E014C08FE39CE90197FC
:100DF000F1F700C0000040EA6C2F802F0E9427020C
:100E0000219602C0C0E0D0E0C031D10574F30F5F7D
:100E10001F4F08301105B4F300E010E031C08FE33C
:100E20009CE90197F1F700C00000EFE0F0E0EC1B57
:100E3000FD0BEE0FFF1FEE0FFF1FEE0FFF1FEF5C0E
:100E4000FE4FE00FF11F8081F801E295F295F07FEF
:100E5000FE27E07FFE27ED5FFC4FEC0FFD1F808338
:100E60000E947C02482F6C2F802F0E94270221961F
:100E700002C0C0E0D0E0C031D1058CF20F5F1F4F3F
:100E800008301105B4F39FEF29E688E19150204026
:100E90008040E1F700C0000000E010E00EC040E03C
:100EA0006C2F802F0E942702219602C0C0E0D0E064
:100EB000C031D105A4F30F5F1F4F08301105B4F303
:100EC000DF91CF911F910F91089580E80E946E0FDE
:100ED00008951F93CF93DF938031B0F46830A0F46E
:100EE000142FC62FD82F81E00E949A0F6C2F6770A5
:100EF00080E1689F900111248D2F8F70822B0E94BA
:100F00009A0F812F0E949A0FDF91CF911F91089520
:100F10000F931F93CF938031A0F48B01C82F83E0F0
:100F20000E949A0F8C2F8F700E949A0FC0E007C00A
:100F3000F801EC0FF11D80810E949A0FCF5FC8303D
:100F4000B8F3CF911F910F9108958FE00E949A0FEF
:100F500008950E9465070E94290140E060E07BE45B
:100F600080E090E00E94860E0E94C30F789408955E
:100F7000CF930E94B10F6AE070E08AE090E00E9497
:100F8000A00F8EEE91E09F938F930E94A5106CE0CE
:100F900070E08AE090E00E94A00F89EB91E09F93BF
:100FA0008F930E94A5106EE070E08AE090E00E94AE
:100FB000A00F8DE791E09F938F930E94A51060E1B1
:100FC00070E08AE090E00E94A00F809108018F936A
:100FD000809107018F9380E591E09F938F930E940A
:100FE000A5100E94E3018DB79EB70A960FB6F8943C
:100FF0009EBF0FBE8DBF0E94CD0E882341F0809111
:10100000AE049091AF040E945110C82F01C0CFEFE1
:1010100018B88091860390918703892BB9F080914D
:10102000960390919703892B59F08DE290E090936D
:101030008F0380938E03909399038093980306C047
:101040008AE590E090938F0380938E03C33709F471
:1010500073C0C33509F470C0C13309F46DC0C23622
:1010600011F0C23469F58091070190910801209137
:101070000501309106018217930739F481E090E071
:10108000909308018093070105C001969093080191
:101090008093070160E170E084E390E00E94A00F7C
:1010A000809108018F93809107018F938DE491E0E7
:1010B0009F938F930E94A5100F900F900F900F9009
:1010C000C536D1F1C534C1F1CD3611F0CD3481F43E
:1010D00081E090E090938703809386038AE590E017
:1010E00090938F0380938E0390939903809398033A
:1010F000C83611F0C834A1F481E090E090938703E2
:10110000809386032DE230E030938F0320938E038B
:1011100030939903209398039093970380939603B9
:10112000C23329F481E090E00E94600205C00E9471
:1011300039018F3F09F45FCFCF9108950E94B10F1D
:1011400080910701909108010E947E020E9439015E
:101150000E94D40E08950E94EE060E94B10F0E94D4
:101160005B02892B29F16CE070E08AE090E00E943C
:10117000A00F80918D038F9380918C038F9382ECCD
:1011800090E09F938F930E94A5106EE070E08AE03C
:1011900090E00E94A00F84EA90E09F938F930E94BA
:1011A000A5100F900F900F900F900F900F901CC0F4
:1011B0006CE070E08AE090E00E94A00F8AE990E085
:1011C0009F938F930E94A5106EE070E08AE090E0FC
:1011D0000E94A00F8CE790E09F938F930E94A51030
:1011E0000F900F900F900F9018B816C00E94CD0E60
:1011F000882339F08091AE049091AF040E94511081
:1012000001C08FEF833731F0833521F00E9439011F
:101210008F3F11F00E94150E0E9439018F3F31F36C
:101220000E94150E08952F923F924F925F926F92F7
:101230007F928F929F92AF92BF92CF92DF92EF9266
:10124000FF920F931F93CF93DF93CDB7DEB7AC9789
:101250000FB6F894DEBF0FBECDBF8AE0E7E1F1E044
:10126000DE01119601900D928A95E1F7FE013B9601
:101270008AE0DF011D928A95E9F78FE38B8796E07C
:101280009C879BE59D879FE49E8796E69F879DE6CA
:10129000988B9DE7998B9FEF97B988B98AB1846045
:1012A0008AB910929503109294030E94DB0F4B01B0
:1012B0005C010E94DB0F2B013C010E94DB0F69A344
:1012C0007AA38BA39CA30E94DB0F6DA37EA38FA3A5
:1012D00098A721E030E03AA729A741E050E05CA7B9
:1012E0004BA785C40E943901182F811107C081E0E6
:1012F0000E9449040E94DB0F4B015C01113039F45C
:1013000082E00E9449040E94DB0F4B015C010E94B5
:10131000CD0E882341F08091AE049091AF040E94DD
:101320005110082F01C00FEF073711F0073541F4B6
:1013300061E080E00E94A9050E94DB0F4B015C0187
:10134000013611F0013441F460E08FEF0E94A905ED
:101350000E94DB0F4B015C01033711F0033541F4B0
:101360006FEF80E00E94A9050E94DB0F4B015C013A
:10137000043611F0043441F460E081E00E94A905D4
:101380000E94DB0F4B015C01053611F0053431F48E
:1013900010928703109286030E94B10F0D3611F050
:1013A0000D3481F48AE590E090938F0380938E034F
:1013B000909399038093980381E090E09093870342
:1013C00080938603083611F0083481F48DE290E0B2
:1013D00090938F0380938E03909399038093980347
:1013E00081E090E090938703809386030E94DB0F57
:1013F0006B017C010E94DB0F6D8B7E8B8F8B988F36
:101400000E94DB0F698F7A8F8B8F9C8F0E94DB0F7E
:101410006D8F7E8F8F8F98A3809186039091870325
:10142000892B09F458C20E945B02892B09F0C2C0C3
:1014300089A19AA1ABA1BCA188519C4FAF4FBF4FCE
:10144000298D3A8D4B8D5C8D281739074A075B072C
:1014500008F44AC080918E0390918F030197909376
:101460008F0380938E030E94DB0F69A37AA38BA363
:101470009CA380918E0390918F030A97ACF14BA5AA
:101480005CA5452BC9F06CE070E08AE090E00E941A
:10149000A00F80918F038F9380918E038F9388E3A9
:1014A00091E09F938F930E94A5100F900F900F9043
:1014B0000F901CA61BA618C06CE070E08AE190E0BB
:1014C0000E94A00F0E94BA0F80918F038F9380918A
:1014D0008E038F9383E391E09F938F930E94A510D7
:1014E0000F900F900F900F9080918E0390918F032B
:1014F0000A970CF05FC08DA19EA1AFA1B8A58C5931
:101500009F4FAF4FBF4F2D8D3E8D4F8D58A1281748
:1015100039074A075B07D8F18091030190910401D4
:101520001816190634F4019790930401809303016F
:1015300008C0892B31F489E090E0909304018093F6
:1015400003016CE070E08BE190E00E94A00F0E942C
:10155000BA0F809104018F93809103018F93809142
:101560008F038F9380918E038F9389E291E09F93F5
:101570008F930E94A5100E94DB0F6DA37EA38FA303
:1015800098A70F900F900F900F900F900F90809151
:101590008E0390918F031816190664F00E9465025D
:1015A00022E030E0281B390B30938D0320938C030D
:1015B0000E94AB080E945B02892B09F48CC149A5EB
:1015C0005AA5452B59F16CE070E08AE090E00E944A
:1015D000A00F80918F038F9380918E038F9381EB67
:1015E00092E09F938F930E948F106EE070E08AE0EC
:1015F00090E00E94A00F809199038F9380919803AF
:101600008F938FEC92E09F938F930E948F100FB671
:10161000F894DEBF0FBECDBF1AA619A689A19AA164
:10162000ABA1BCA188519C4FAF4FBF4F298D3A8DC4
:101630004B8D5C8D281739074A075B0708F474C087
:101640000E946502892B09F042C080918E0390911F
:101650008F03019790938F0380938E030A970CF466
:101660005DC04BA55CA5452BC9F06CE070E08AE03D
:1016700090E00E94A00F80918F038F9380918E0342
:101680008F938BE091E09F938F930E94A5100F9012
:101690000F900F900F901CA61BA640C06CE070E04E
:1016A00083E290E00E94A00F0E94BA0F80918F0306
:1016B0008F9380918E038F9386E091E09F938F9319
:1016C0000E94A5100F900F900F900F9027C00E94BE
:1016D0006502892B19F180919803909199030197E4
:1016E00090939903809398030A97C4F06EE070E09A
:1016F0008AE090E00E94A00F809199038F938091DF
:1017000098038F9388EE90E09F938F930E94A5108B
:101710000F900F900F900F901CA61BA60E94DB0F3E
:1017200069A37AA38BA39CA33324339480918E0363
:1017300090918F030A970CF0312C0E94650221E0F2
:10174000892B09F020E0822F832109F44AC08DA162
:101750009EA1AFA1B8A58C599F4FAF4FBF4F2D8D04
:101760003E8D4F8D58A1281739074A075B07C8F1EE
:101770006CE070E083E290E00E94A00F8091030192
:10178000909104011816190634F4019790930401FE
:101790008093030108C0892B31F489E090E0909395
:1017A000040180930301809104018F9380910301D0
:1017B0008F9380918F038F9380918E038F938EED03
:1017C00090E09F938F930E94A5100E94DB0F6DA362
:1017D0007EA38FA398A70F900F900F900F900F905C
:1017E0000F9022242394312C809198039091990397
:1017F0000A9714F0212C312C0E946502822193213A
:10180000892B09F44AC08DA19EA1AFA1B8A58C591E
:101810009F4FAF4FBF4F2D8D3E8D4F8D58A1281735
:1018200039074A075B07C8F16EE070E083E290E099
:101830000E94A00F809101019091020118161906D3
:1018400034F40197909302018093010108C0892B21
:1018500031F489E090E0909302018093010180913E
:1018600002018F93809101018F93809199038F934F
:10187000809198038F9384ED90E09F938F930E94C3
:10188000A5100E94DB0F6DA37EA38FA398A70F90D6
:101890000F900F900F900F900F9080918E0390916A
:1018A0008F031816190644F082E090E090938D03A0
:1018B00080938C030E94AB088091980390919903C8
:1018C0001816190644F081E090E090938D03809300
:1018D0008C030E94AB08D501C4018C509E4FAF4FC2
:1018E000BF4FC816D906EA06FB0620F00E94630621
:1018F00046015701123029F0023519F0023709F07C
:1019000043C09BB184E089278BB980918A03909171
:101910008B03019779F5809194030E9449040E94FA
:101920006502892B91F48091900390919103893005
:10193000910529F410929103109290031BC0019617
:10194000909391038093900315C00E946502892BA8
:1019500089F080918803909189038930910529F459
:10196000109289031092880305C001969093890311
:101970008093880380918A0390918B0331E08327C1
:1019800090938B0380938A0380918A0390918B03B9
:10199000892B59F11092930310929203D301C20143
:1019A000C296A11DB11D2D893E894F89588D2817DA
:1019B00039074A075B07C8F080919403909195031B
:1019C0008630910549F481E090E0909395038093EF
:1019D000940329013A0109C00196909395038093DD
:1019E00094034D885E886F88788C809192039091E3
:1019F0009303892B41F5E0919403F09195034BE01B
:101A000050E04C0F5D1FE40FF51F808188B928B1AD
:101A100080919203909193039695982F882797959C
:101A20008795822B88B9809192039091930351E01E
:101A3000852790939303809392038FE097E2019719
:101A4000F1F700C0000080919203909193030197F9
:101A500041F5E0919003F0919103A1E0B0E0AC0F6B
:101A6000BD1FEA0FFB1F808188B928B180919203C6
:101A7000909193039695982F882797958795822B19
:101A800088B98091920390919303B1E08B27909352
:101A90009303809392038FE097E20197F1F700C0E0
:101AA0000000133029F0003719F0003509F08CC020
:101AB0000E94DB0F6B017C01809192039091930354
:101AC000892B41F5E0919403F0919503ABE0B0E0F0
:101AD000AC0FBD1FEA0FFB1F808188B928B1809130
:101AE0009203909193039695982F882797958795C1
:101AF000822B88B98091920390919303B1E08B2758
:101B000090939303809392038FE097E20197F1F70C
:101B100000C000008091920390919303019741F5DA
:101B2000E0919003F0919103A1E0B0E0AC0FBD1FF4
:101B3000EA0FFB1F808188B928B1809192039091B0
:101B400093039695982F882797958795822B88B928
:101B50008091920390919303B1E08B27909393032C
:101B6000809392038FE097E20197F1F700C00000A5
:101B70000E94CD0E882339F08091AE049091AF047D
:101B80000E94511001C08FEF803721F0803521F481
:101B900011E003C011E001C010E00E94DB0F21E062
:101BA000C616D706E806F90609F420E0812F82233D
:101BB00009F482CF0E94DB0FC61AD70AE80AF90A95
:101BC0008C0C9D1CAE1CBF1C0E949506882379F0CE
:101BD0000E946502892B19F482E090E002C081E046
:101BE00090E090938D0380938C030E94AB080E9439
:101BF0009506882309F476CBAC960FB6F894DEBF31
:101C00000FBECDBFDF91CF911F910F91FF90EF904D
:101C1000DF90CF90BF90AF909F908F907F906F900C
:101C20005F904F903F902F9008950E94A9070E94C7
:101C3000B8070E949E080E9413090E94AB08F9CFC2
:101C4000CF93C82F8A3019F48DE00E94200E9FB7E1
:101C5000907802C0992329F180919B038F3FD1F3A3
:101C6000F894E0919A0381E08E0F80939A03F0E05C
:101C7000E456FC4FC08380919B038F5F80939B034E
:101C800080919A038F3F11F410929A03E1ECF0E0F7
:101C9000808180628083992339F0789480E090E09D
:101CA00005C081E090E002C080E090E0CF9108950F
:101CB0008091AD048823E1F32FB72078F8948091C8
:101CC0009B043091AD0490E0831B91095AF4E0919C
:101CD0009B048091AD04F0E0E81BF109E455FB4F53
:101CE00080810AC0E0919B048091AD04F0E0E81B84
:101CF000F109E456FB4F80819091AD04915090938F
:101D0000AD04222309F0789490E0089510929A038C
:101D100010929B0310929B041092AD041092AC049D
:101D20004093FC02DC01CB01880F991FAA1FBB1F47
:101D3000880F991FAA1FBB1F9C01AD01220F331FE3
:101D4000441F551F60E072E18AE790E00E94101086
:101D5000BA01A9014F5F5F4F6F4F7F4FDB01CA018F
:101D60001AF40196A11DB11DB595A7959795879574
:101D700001979093C5008093C400E1ECF0E088E106
:101D80008083808180688083EEEAF4E089E091E0DE
:101D9000938382839183808308959091AD0481E041
:101DA000911101C080E0089510929B041092AD043F
:101DB00008951F920F920FB60F9211242F938F93B5
:101DC0009F93EF93FF9380919B03882329F1809148
:101DD0009A0320919B0390E0821B91095AF4E091B1
:101DE0009A0380919B03F0E0E81BF109E556FB4F55
:101DF00090810AC0E0919A0380919B03F0E0E81B78
:101E0000F109E456FC4F908180919B0381508093AF
:101E10009B039093C60005C0E1ECF0E080818F7DCC
:101E20008083FF91EF919F918F912F910F900FBE23
:101E30000F901F9018951F920F920FB60F921124BA
:101E40002F933F934F935F936F937F938F939F93C2
:101E5000AF93BF93CF93EF93FF93C091C600809150
:101E6000FC02882349F080919B038F3F29F060E0BA
:101E700070E08C2F0E94200E8091AD04803120F004
:101E800081E08093AC0418C0CD3009F4CAE0E09141
:101E90009B0481E08E0F80939B04F0E0E456FB4F9F
:101EA000C0838091AD048F5F8093AD0480919B04CB
:101EB000803111F410929B04FF91EF91CF91BF916B
:101EC000AF919F918F917F916F915F914F913F91D2
:101ED0002F910F900FBE0F901F90189594B1906B9B
:101EE00094B995B1906195B990E59CBD883021F089
:101EF000803211F0823019F491E09DBD01C01DBC0B
:101F0000803269F028F4883071F0803161F00EC0C1
:101F1000803429F0803851F48CB581608CBD8CB54B
:101F200082608CBD03C08CB581608CBD85B18F7E15
:101F300085B908958EBD0DB407FEFDCF8EB5089509
:101F40009F938F937F936F938AE092E09F938F93F9
:101F50000E94A5100F900F900F900F900F900F9070
:101F6000089585E092E09F938F930E94A5100F90B3
:101F70000F90089581E092E09F938F930E94A510A7
:101F80000F900F9008951092FD021092FE02109291
:101F9000FF021092000316BC8CE787BD82E084BD6F
:101FA00083E085BDEEE6F0E080818260808385B3CA
:101FB000827085BB08958FB7282F2078F8946091A0
:101FC000FD027091FE028091FF0290910003222396
:101FD00009F0789408951F920F920FB60F92112472
:101FE0008F939F93AF93BF938091FD029091FE02D8
:101FF000A091FF02B09100030196A11DB11D809335
:10200000FD029093FE02A093FF02B0930003BF91E4
:10201000AF919F918F910F900FBE0F901F901895C9
:10202000052E97FB1EF400940E94271057FD07D041
:102030000E942F1007FC03D04EF40C9427105095EB
:102040004095309521953F4F4F4F5F4F08959095A4
:102050008095709561957F4F8F4F9F4F0895A1E2B6
:102060001A2EAA1BBB1BFD010DC0AA1FBB1FEE1F12
:10207000FF1FA217B307E407F50720F0A21BB30B5D
:10208000E40BF50B661F771F881F991F1A9469F7D9
:1020900060957095809590959B01AC01BD01CF0135
:1020A0000895CF93DF93EC012B8120FF33C026FFEF
:1020B0000AC02F7B2B838E819F8101969F838E8305
:1020C0008A8190E029C022FF0FC0E881F9818081D8
:1020D000082E000C990B009719F420622B831AC06C
:1020E0003196F983E8830EC0EA85FB85099597FF51
:1020F00009C02B81019611F080E201C080E1822BA2
:102100008B8308C02E813F812F5F3F4F3F832E83FB
:10211000992702C08FEF9FEFDF91CF910895A0E044
:10212000B0E0E5E9F0E10C946C13AE014B5F5F4F5A
:10213000FA0161917191AF018091B0049091B10465
:102140000E94CB10E2E00C948813A0E0B0E0EBEA30
:10215000F0E10C946A13AE01495F5F4FDA016D91B3
:102160007D91AD010EEA14E0F80182819381DC01DA
:1021700013962C911397286013962C930E94CB10E2
:10218000D8011296ED91FC9113972381277F238329
:10219000E4E00C948613ABE0B0E0E1EDF0E10C94E8
:1021A0005C136C017B018A01FC011782168283811A
:1021B00081FFCCC1CE0101963C01F6019381F7016C
:1021C00093FD859193FF81917F01882309F4BAC122
:1021D000853239F493FD859193FF81917F0185329A
:1021E00029F4B60190E00E94C212E7CF912C212C75
:1021F000312CFFE1F315D8F08B3279F038F48032CE
:1022000079F08332A1F4232D20611DC08D3261F05D
:10221000803369F4232D216016C0832D8260382E0F
:10222000E32DE4603E2E2AC0F32DF8601DC037FC7C
:102230002DC020ED280F2A3040F08E32B9F436FC44
:1022400081C1232D2064322E19C036FE06C08AE0DB
:10225000989E200D1124922E11C0EAE02E9E200D92
:102260001124222EF32DF0623F2E08C08C3621F46B
:10227000832D8068382E02C0883641F4F70193FD23
:10228000859193FF81917F018111B3CF982F9F7D1D
:102290009554933028F40C5F1F4F9FE399830DC032
:1022A000833631F0833771F0833509F059C021C08E
:1022B000F801808189830E5F1F4F88248394912CBD
:1022C000530113C02801F2E04F0E511CF801A08009
:1022D000B18036FE03C0692D70E002C06FEF7FEF62
:1022E000C5010E94B7124C018201F32DFF773F2EEA
:1022F00016C0280122E0420E511CF801A080B180D6
:1023000036FE03C0692D70E002C06FEF7FEFC5019C
:102310000E94AC124C01F32DF0683F2E820133FC79
:102320001BC0822D90E088169906B0F4B60180E2B9
:1023300090E00E94C2122A94F4CFF50137FC8591F7
:1023400037FE81915F01B60190E00E94C212211018
:102350002A9421E0821A91088114910471F7E8C04F
:10236000843611F0893641F5F80137FE07C06081E7
:102370007181828193810C5F1F4F08C060817181E0
:10238000072E000C880B990B0E5F1F4FF32DFF7665
:102390003F2E97FF09C090958095709561957F4F6E
:1023A0008F4F9F4FF0683F2E2AE030E0A3010E943C
:1023B000FE12882E861845C0853731F4232D2F7ED6
:1023C000B22E2AE030E025C0932D997FB92E8F36AA
:1023D000C1F018F4883579F0B5C0803719F0883726
:1023E00021F0B0C0E92FE061BE2EB4FE0DC0FB2D80
:1023F000F460BF2E09C034FE0AC0292F2660B22E19
:1024000006C028E030E005C020E130E002C020E155
:1024100032E0F801B7FE07C060817181828193814B
:102420000C5F1F4F06C06081718180E090E00E5FFD
:102430001F4FA3010E94FE12882E8618FB2DFF77E6
:102440003F2E36FE0DC0232D2E7FA22E891458F468
:1024500034FE0BC032FC09C0832D8E7EA82E05C031
:10246000B82CA32C03C0B82C01C0B92CA4FE0FC0FB
:10247000FE01E80DF11D8081803321F49A2D997EB3
:10248000A92E09C0A2FE06C0B394B39404C08A2D3D
:10249000867809F0B394A3FC11C0A0FE06C0B21464
:1024A00088F4280C922C9B180EC0B21460F4B6016C
:1024B00080E290E00E94C212B394F7CFB21418F4F5
:1024C0002B1802C0982C212CA4FE10C0B60180E36A
:1024D00090E00E94C212A2FE17C0A1FC03C088E7D0
:1024E00090E002C088E590E0B6010CC08A2D8678A5
:1024F00059F0A1FE02C08BE201C080E2A7FC8DE290
:10250000B60190E00E94C212891438F4B60180E34B
:1025100090E00E94C2129A94F7CF8A94F301E80DDA
:10252000F11D8081B60190E00E94C2128110F5CFAA
:10253000222009F442CEB60180E290E00E94C2124D
:102540002A94F6CFF6018681978102C08FEF9FEF24
:102550002B96E2E10C947813FC01059061507040D9
:102560000110D8F7809590958E0F9F1F0895FC015C
:102570006150704001900110D8F7809590958E0FB2
:102580009F1F08950F931F93CF93DF93FB01238128
:1025900021FD03C08FEF9FEF2CC022FF16C04681A4
:1025A0005781248135814217530744F4A081B181BA
:1025B0009D012F5F3F4F318320838C93268137818C
:1025C0002F5F3F4F3783268314C08B01EC01FB0143
:1025D0000084F185E02D0995892BE1F6D801169646
:1025E0008D919C911797019617969C938E931697B1
:1025F000CE01DF91CF911F910F910895FA01AA2783
:10260000283051F1203181F1E8946F936E7F6E5F35
:102610007F4F8F4F9F4FAF4FB1E03ED0B4E03CD0E3
:10262000670F781F891F9A1FA11D680F791F8A1FC6
:10263000911DA11D6A0F711D811D911DA11D20D02D
:1026400009F468943F912AE0269F11243019305DE7
:102650003193DEF6CF010895462F4770405D4193D8
:10266000B3E00FD0C9F7F6CF462F4F70405D4A3325
:1026700018F0495D31FD4052419302D0A9F7EACFED
:10268000B4E0A6959795879577956795BA95C9F71C
:1026900000976105710508959B01AC010A2E06940F
:1026A0005795479537952795BA95C9F7620F731FC8
:1026B000841F951FA01D08952F923F924F925F9205
:1026C0006F927F928F929F92AF92BF92CF92DF9242
:1026D000EF92FF920F931F93CF93DF93CDB7DEB7A7
:1026E000CA1BDB0B0FB6F894DEBF0FBECDBF09943B
:1026F0002A88398848885F846E847D848C849B8492
:10270000AA84B984C884DF80EE80FD800C811B819F
:10271000AA81B981CE0FD11D0FB6F894DEBF0FBECE
:0A272000CDBFED010895F894FFCF3E
:10272A004009000900020001000000000300000047
:10273A0000200E580E00003F065B4F666D7D077F36
:10274A006F75555D7C407C7D116D007C04047D4570
:10275A0039E0E0E0E0E0E0E0E0E0E0E0E0E0E0E016
:10276A00E0E0E0E0E0E0E0E0E0E0E0E0E0E0E0E05F
:10277A00E0000000E0E0000000000000E0E00000EF
:10278A0000000000E0E0000000E0E0E00000E0E01F
:10279A00E0E0E0E00000E0E0E0E0E000000000E06F
:1027AA00E0E0E000E0E000E0E0E0E000E0E000E09F
:1027BA00E0E0E0E0E0E0E0E0E0E0E0E0E0E0E0E00F
:1027CA00E0E0E0E0E0E0E0E0E0E0E0E0E0E0E0E0FF
:1027DA00E02000000000840000000000000000A0CB
:1027EA00000000D400000000A00000E0000000008B
:1027FA00A00000C400000000940000008300000054
:10280A0000D200D300A0000000C20000E000930044
:10281A000000000000E00000000082000000E0006C
:10282A000000A0000000C3000000A000000000009B
:10283A00000092000000008100000000D10000A00A
:10284A000000000000E00000911000000000C1003C
:10285A0000200000000000000000840000D40000F6
:10286A000000A000E00000000000A0C4000000007A
:10287A0000009400000000830000000000D300A0C4
:10288A000082000000E000A00000A00000C3009346
:10289A00000000920000000000000000000000009C
:1028AA00000000000000000000000000810000009D
:1028BA00D100D200A00000E00000E000A000C100AA
:1028CA000000C200A00000000010000091000000FB
:1028DA0000506C6179657220312074696D652072CF
:1028EA00656D61696E696E673A20256420730050D0
:1028FA006C6179657220322074696D652072656D2C
:0E290A0061696E696E673A20256420730000D3
:00000001FF
